:020000040800F2
:10000000107E0020811C0008891C000855DA0408B5
:100010008D1C00088F1C0008911C000800000000C7
:10002000000000000000000000000000931C000819
:10003000951C0008000000005B7D0008817C000822
:100040009B1C00089B1C00089B1C00089B1C0008B4
:100050009B1C00089B1C00089B1C00089B1C0008A4
:100060009B1C00089B1C00089B1C00089B1C000894
:100070009B1C00089B1C00089B1C00089B1C000884
:100080009B1C00089B1C00089B1C00089B1C000874
:100090009B1C00089B1C00089B1C000819490008B9
:1000A0009B1C00089B1C00089B1C00089B1C000854
:1000B0009B1C00089B1C00089B1C00089B1C000844
:1000C0009B1C00089B1C00089B1C00089B1C000834
:1000D000CD3F0008DFDB04089B1C00089B1C0008C8
:1000E0009B1C00089B1C00089B1C00089B1C000814
:1000F0009B1C00089B1C00089B1C00089B1C000804
:100100009B1C0008FB3000089B1C00089B1C00087F
:100110009B1C00089B1C00089B1C00089B1C0008E3
:100120009B1C00089B1C00089B1C00089B1C0008D3
:100130009B1C00089B1C00089B1C00089B1C0008C3
:100140009B1C00089B1C00089B1C00089B1C0008B3
:100150009B1C00089B1C00089B1C00089B1C0008A3
:100160009B1C00089B1C00089B1C00089B1C000893
:100170009B1C00089B1C00089B1C00089B1C000883
:100180009B1C00089B1C0008DFF80CD04FF046FBBE
:100190000048004725C60408107E0020324901436C
:1001A000324A1160704770B5002100230F22C478D5
:1001B0001CB32E4C246804F4E064C4F5E064C4F37A
:1001C0000721C1F10404E3B20A4144789C40E1B242
:1001D0008478144021430C07210E254C0578615585
:1001E000047804F01F050124AC4005786D11AD00C2
:1001F00005F1E025C5F8004109E0047804F01F0589
:100200000124AC401B4D0678761145F8264070BDA0
:10021000194A0A400243154B1B1F1A60704739B137
:10022000124A121D12680243104B1B1D1A6006E091
:100230000E4A121D126882430C4B1B1D1A60704738
:10024000042808D14FF0E021096941F004014FF082
:10025000E022116107E04FF0E021096921F004017B
:100260004FF0E022116170470000FA050CED00E04C
:1002700000E400E080E100E080FFFF1F016821F062
:10028000010101600021016041608160C160016184
:1002900021214161DB49884204D13D21D94A103AEC
:1002A00091608CE0D7491831884205D14FF47461D0
:1002B000D44A103A916082E0D2493031884205D167
:1002C0004FF47411CF4A103A916078E0CD4948312B
:1002D000884205D14FF07461CA4A103A91606EE0CD
:1002E000C8496031884204D1C749C64A103AD16032
:1002F00065E0C4497831884204D1C449C14A103A02
:10030000D1605CE0BF499031884204D1C049BD4A08
:10031000103AD16053E0BB49A831884205D14FF073
:100320003D51B84A103AD16049E0BA49884204D1F7
:100330003D21B84A083A116041E0B6491831884277
:1003400005D14FF47461B34A083A116037E0B149FE
:100350003031884205D14FF47411AE4A083A116029
:100360002DE0AC494831884205D14FF07461A94A6B
:10037000083A116023E0A7496031884204D1A249BC
:10038000A44A121F11601AE0A2497831884204D1B0
:100390009E49A04A121F116011E09E499031884287
:1003A00004D19B499B4A121F116008E09949A8316A
:1003B000884204D14FF03D51964A121F1160704798
:1003C00010B500220268944B1A40CC680B68234396
:1003D0004C6923438C692343CC6923430C6A234330
:1003E0004C6A23438C6A23434C6B23438C6B23431B
:1003F0001A430260426922F00702D1E90B34234319
:100400001A4342610B6943604B6883608B68C36029
:1004100010BD0021016041608160C16001614161E6
:100420008161C161016241628162C16201634163B4
:100430008163704721B1026842F00102026003E06B
:10044000026822F001020260704721B1026842F4A2
:100450000042026003E0026822F40042026070473A
:1004600021B1026842F02002026003E0026822F03B
:10047000200202607047416070470146486880B2C0
:10048000704722B1036843F40023036003E003686C
:1004900023F4002303600161704721B1026842F434
:1004A0008022026003E0026822F48022026070472A
:1004B0000AB1016100E0C1607047014600200A688E
:1004C00002F400220AB1012000E00020704701463A
:1004D00000200A6802F001020AB1012000E00020B9
:1004E0007047014600204A6902F03800704730B575
:1004F00003460A4600200024464DAB4202D2414941
:10050000103901E04349103902F000550DB14C6833
:1005100000E00C68414D2C4004EA02050DB10120B9
:1005200000E0002030BD02463A4B9A4202D23548E4
:10053000103801E03748103801F000531BB1374B39
:100540000B40C36002E0354B0B408360704710B531
:1005500001F080034BB122B1436943F08003436152
:1005600003E0436923F08003436180290BD02AB163
:10057000036801F01E042343036004E0036801F0F4
:100580001E04A343036010BD70B502460020002482
:100590000025204EB24202D21A4B103B01E01D4B07
:1005A000103B1F4E0E4036B11E2606EAD1241668B7
:1005B00006EA040502E0566906F0800501F00056DF
:1005C0000EB15C6800E01C68144E344004EA010679
:1005D00016B10DB1012000E0002070BD02460D4BA8
:1005E0009A4202D20748103801E00A48103801F058
:1005F00000531BB1094B0B40C36002E0074B0B409B
:1006000083607047106002403D000020400F0020D2
:1006100000003D20106402403F801CF07D0F7D0FE4
:100620003C0F3C0F10B504468C48844208D1012190
:10063000084600F000FB0021012000F0FCFA5EE01B
:100640008748844208D10121022000F0F4FA0021F9
:10065000022000F0F0FA52E08248844208D10121E1
:10066000042000F0E8FA0021042000F0E4FA46E05B
:100670007D48844208D10121082000F0DCFA0021E5
:10068000082000F0D8FA3AE07848844208D10121E5
:10069000102000F0D0FA0021102000F0CCFA2EE05B
:1006A0007348844208D10121202000F0C4FA0021BF
:1006B000202000F0C0FA22E06E48844208D10121D7
:1006C000402000F0B8FA0021402000F0B4FA16E013
:1006D0006948844208D10121802000F0ACFA002151
:1006E000802000F0A8FA0AE06448844207D1012182
:1006F000801500F0A0FA0021A01500F09CFA10BDB2
:10070000F0B50A4600210023002400BF3DE001258A
:1007100005FA01F3156805EA03049C4234D1056823
:100720004F000326BE40B543056015794E00B54025
:100730000668354305601579012D02D01579022D23
:1007400016D185684F000326BE40B54385605579B4
:100750004E00B540866835438560456801268E4069
:10076000B5434560456896798E40B6B235434560DD
:10077000C5684F000326BE40B543C560D5794E001D
:10078000B540C6683543C560491C1029BFD3F0BDCC
:100790004FF6FF7101600021017141718171C171DA
:1007A000704708B54FF480320092009A0A430092D5
:1007B000009AC261C161009AC261C2690092C269B5
:1007C000009208BD0246002013690B400BB10120C6
:1007D00000E0002070470146086980B27047024679
:1007E000002053690B400BB1012000E0002070474E
:1007F0000146486980B27047018370474183704762
:100800000AB1018300E0418370474161704742694A
:100810004A4042617047F0B5002300244D07ED0EB9
:1008200002FA05F3CE1000F1200555F826504E07C8
:10083000F70E0F26BE40B543CF1000F1200646F854
:100840002750CE1000F1200555F8265045EA030444
:10085000CE1000F1200545F82640F0BD0000024012
:100860000004024000080240000C02400010024058
:100870000014024000180240001C02400020024008
:10088000FA48006840F00100F84908600020F74984
:1008900008310860F5480068F5490840F3490860E8
:1008A000F448091D0860081F006820F48020091F13
:1008B00008600020ED490C31086070470021EB4AC8
:1008C000921C117011460870704710B50146002245
:1008D000002300204A11012A02D1E44C236808E0D9
:1008E000022A03D1E14C7034236802E0DF4C7434F7
:1008F000236801F01F02012494401C400CB1012028
:1009000000E0002010BD38B5002000900024002534
:1009100000BF3120FFF7D9FF05460098401C00902A
:100920000098B0F5A06F01D0002DF2D03120FFF774
:10093000CCFF08B1012400E00024204638BD014668
:100940000020CA4A106820F0F80040EAC100106098
:100950007047C949086070470021C44A703211705D
:100960001170012802D004280AD104E00121BF4AF5
:100970007032117005E00521BC4A7032117000E040
:1009800000BF00BF7047BD490860704770B5049C48
:1009900041EA82150126C6EB530645EA06450543A2
:1009A00045EA0465B14E361D356070BDB249086632
:1009B0007047820142EA0172AC4B84331A6070477F
:1009C000AD4988667047AC49C8647047024600204C
:1009D000A64B0833186820F0EC6042EA0103184384
:1009E000A24B083318607047024600209F4B083323
:1009F000186820F0784042EA010318439B4B083303
:100A00001860704701460020984A0832106820F0AC
:100A1000030008431060704794480830006800F0F5
:100A20000C00704701460020904A0832106820F000
:100A3000F000084310607047014600208B4A0832DE
:100A4000106820F4E0500843106070470146002011
:100A5000864A0832106820F4604040EAC100106005
:100A60007047F0B500210022002402250026022351
:100A70007E4F08373F6807F00C0121B1042905D0EB
:100A8000082937D105E07E4F076036E07D4F0760CB
:100A900033E0764F3F1D3F68C7F38056734F3F1DCD
:100AA0003F6807F03F036EB1764FB7FBF3F7DFF80F
:100AB000BCC10CF1040CDCF800C0CCF3881C07FBB3
:100AC0000CF40CE06E4FB7FBF3F7DFF8A0C10CF1AC
:100AD000040CDCF800C0CCF3881C07FB0CF4634F5B
:100AE0003F1D3F68C7F301477F1C7D00B4FBF5F74E
:100AF000076002E0624F076000BF00BF5B4F08372E
:100B00003F6807F0F00109095F4F7A5C0768D7403A
:100B10004760564F08373F6807F4E051890A5A4F3B
:100B20007A5C4768D7408760504F08373F6807F4C2
:100B30006041490B544F7A5C4768D740C760F0BDAD
:100B4000002100F44072B2F5407F0AD1474A0832D2
:100B5000116821F4F8114D4A02401143434A08320A
:100B60001160424A70321268C0F30B031A433F4BC4
:100B700070331A60704741494439086070473F49F3
:100B800040390860704742490860704739B1374AB8
:100B9000303212680243354B30331A6006E0334A74
:100BA000303212688243314B30331A60704739B1AA
:100BB0002E4A3432126802432C4B34331A6006E05A
:100BC0002A4A343212688243284B34331A60704701
:100BD00039B1264A383212680243244B38331A603E
:100BE00006E0224A383212688243204B38331A60BA
:100BF000704739B11D4A4032126802431B4B4033E3
:100C00001A6006E0194A403212688243174B40339B
:100C10001A60704739B1154A443212680243134BC7
:100C200044331A6006E0114A4432126882430F4B83
:100C300044331A60704739B10C4A103212680243CB
:100C40000A4B10331A6006E0084A103212688243D9
:100C5000064B10331A607047E1B1044A143212682F
:100C60000243024B14331A6019E0000000380240BE
:100C7000FFFFF6FE1030002400004742800E47427E
:100C80000024F40000127A0000000020FFFCFF0F97
:100C90005C0147425B4A126882435A4B1A607047B4
:100CA00039B1584A121D12680243564B1B1D1A6077
:100CB00006E0544A121D12688243524B1B1D1A60F3
:100CC000704739B14F4A0C32126802434D4B0C3316
:100CD0001A6006E04B4A0C3212688243494B0C33CF
:100CE0001A60704739B1474A103212680243454BC7
:100CF00010331A6006E0434A103212688243414BB7
:100D000010331A60704739B13E4A3C3212680243D0
:100D10003C4B3C331A6006E03A4A3C32126882434C
:100D2000384B3C331A60704739B1364A403212684A
:100D30000243344B40331A6006E0324A40321268B4
:100D40008243304B40331A60704739B12D4A4432E8
:100D5000126802432B4B44331A6006E0294A44329E
:100D600012688243274B44331A60704739B1254AD1
:100D70004C3212680243234B4C331A6006E0214A7E
:100D80004C32126882431F4B4C331A60704739B1A2
:100D90001C4A5032126802431A4B50331A6006E064
:100DA000184A503212688243164B50331A6070470B
:100DB00039B1144AD21F12780243124BDB1F1A704A
:100DC00006E0104AD21F127882430E4BDB1F1A70C6
:100DD00070470C486030006840F08070094960310D
:100DE0000860704701460020064A083A12680A4027
:100DF0000AB1012000E0002070470249891F0870F5
:100E0000704700001438024010B501214020FFF760
:100E100023FF00214020FFF71FFF10BD30B1214903
:100E2000096841F004011F4A116005E01D49096885
:100E300021F004011B4A116070471A48083000680D
:100E4000704730B11749096841F00801154A11602F
:100E500005E01449096821F00801124A1160704741
:100E6000014600200F4A121D12680A400AB10120F3
:100E700000E0002070476FEA00110A4A121D11605D
:100E8000704701460020074A121D12680A400AB145
:100E9000012000E000207047C143C9B2014A121D81
:100EA000116070470008065010B50121C802FFF715
:100EB00019FF00214FF40060FFF714FF10BD00215F
:100EC0006C4A116847F6FF629143027D83681A43BA
:100ED00043681A43C3681A4303681A4303691A43F1
:100EE0001143644A1160704700210175016041603F
:100EF0008160C160016170475F49086070475D496A
:100F0000091F086070475B48001F006800F003007D
:100F100070470021574B1B1D02681A601A1D11688B
:100F20006FF30A01D0E901231A43C3681A43036926
:100F30001A4311434F4A0832116070470021016083
:100F400041608160C160016170474A480C300068AF
:100F5000C0B2704708B501460020009045481030E7
:100F6000084400900098006808BD0021414B2033E0
:100F700002681A601B1D42681A601A1D116821F070
:100F8000F701D0E902231A4303691A4343691A435C
:100F90001143384A2832116070474FF0FF31016029
:100FA000002141608160C160016141617047314849
:100FB0002C30006870472F487C30006870472D49FE
:100FC0007C31086070472B484430006870472B49DB
:100FD000086070472949091D086070472749083192
:100FE0000860704725490C31086070472449086043
:100FF00070472349091D0860704701218143204A39
:101000000832116070471E490C31086070471B4957
:1010100014390860704739B1164A383212680243F1
:10102000144B38331A6006E0124A38321268824391
:10103000104B38331A607047014600200D4A303299
:1010400012680A400AB1012000E0002070470949F7
:1010500034310860704701460020064A3032126879
:101060000A400AB1012000E00020704701493431F4
:1010700008607047042C0140A0802542A0852542CD
:10108000AC81254210B50446F748844208D10121BD
:101090008014FFF727FE0021A014FFF723FE16E0BF
:1010A000F248844208D101210014FFF70AFE002112
:1010B0002014FFF706FE0AE0ED48844207D1012123
:1010C000C013FFF7FEFD0021E013FFF7FAFD10BD8E
:1010D00010B50022028802F441520B884C88234349
:1010E0008C882343CC8823430C8923434C89234396
:1010F0008C892343CC8923431A430280838B4FF28C
:10110000FF74234083830B8A038210BD2DE9F04FC7
:101110000025022300240127002200269446904641
:101120009146B0F81CA04FF2400B0AEA0B0AA0F857
:101130001CA04FF0020AA0F820A0858BD1F808A0CF
:10114000BAF1020F01D100BF6CE0B1F804A0BAF10E
:10115000000F01D1012700E00227DFF818A3DAF819
:1011600000A00AF4000ABAF1000F09D0DFF804A3C6
:10117000DAF800A02AF4000ADFF8F8B2CBF800A0F1
:10118000DFF8F0A20AF17C0ADAF800A0CAF38818A6
:10119000DFF8E0A20AF17C0ADAF800A0CAF30279CB
:1011A000DFF8D0A2AAF1040ADAF800A00AF03F0C96
:1011B000DFF8C4A2BAFBFCFA0AFB08FABAFBF9F69C
:1011C000B1F806A0BAF5007F0ED14FEA162A0AEB55
:1011D0008A0A4FEA4A0AD1F808B0BAFBFBFA0AF1C8
:1011E000050A1FFA8AF20FE04FEA471AB6FBFAFA2D
:1011F0000AEB8A0A4FEA4A0AD1F808B0BAFBFBFAAE
:101200000AF1050A1FFA8AF24FF00A0AB2FBFAF253
:1012100002F00104A2EB040ACAF34F034FF6FF7A6F
:101220000AEA0424022B01DBFF2B01DD0223002448
:10123000B1F806A04AEA040A4AEA030AA0F820A084
:10124000B1F804A0B1F80CB04AEA0B0AB1F802B048
:101250004AEA0B0AB1F800B04AEA0B0A4AF4006AFB
:101260004AEA05058583BDE8F08F002101804180B1
:101270008180C180018141818181C18107210182F9
:1012800070470021018041808180C18002218160FE
:1012900000218181704721B1028842F04002028022
:1012A00004E002884FF6BF731A400280704721B1F4
:1012B000828B42F48062828304E0828B4FF6FF339C
:1012C0001A408283704702884FF2FF731A400280EF
:1012D00002880A4302807047B1F5804F04D102882A
:1012E00042F48042028004E002884BF6FF731A4009
:1012F000028070474FF6FF62914204D0028842F4A8
:101300008072028004E002884FF6FF631A40028078
:10131000704721B1828842F00402828004E0828812
:101320004FF6FB731A408280704721B1828842F0E9
:101330001002828004E082884FF6EF731A408280A8
:10134000704730B500220023848B4FF240052C40BB
:10135000848302240484828B0C88B4F5007F01D03E
:101360000C8814B94FF4807308E00C88B4F5407F02
:1013700003D00C88B4F5807F00D100238C888D8940
:101380002C434D882C431C4344F400642243828345
:1013900030BD0146888970478181704721B102883C
:1013A00042F40052028004E002884DF6FF731A40B6
:1013B00002807047018841F48051018070470246E5
:1013C0000020012901D0108B00E0908A704701466F
:1013D000088A70471AB183880B43838002E08388B0
:1013E0008B438380704730B5002400230C11012506
:1013F000A540ABB21AB185881D43858002E085887F
:101400009D43858030BD0246002013890B400BB1FF
:10141000012000E000207047CA4302817047F0B508
:101420000246002000240023002501F00F070126BA
:10143000BE40B4B20B1101269E40B3B2968806EAB4
:1014400003051689264016B10DB1012000E00020E9
:10145000F0BD10B5002201F00F040123A3409AB2A1
:10146000D343038110BD000000300140003800402C
:10147000003C00400838024000127A0010B50121FB
:101480008803FFF72FFC00214FF48040FFF72AFC70
:1014900010BD1A490860704730B500228B071C0F39
:1014A0000F2303FA04F2154B08338C1053F8243041
:1014B0009343124C08348D1044F8253023468C1089
:1014C00053F824308C07240F00FA04F423430B4C08
:1014D00008348D1044F8253030BD09490860704744
:1014E000084908607047002004492031096801F468
:1014F000807109B1012000E00020704700380140F0
:10150000DC0027420004274210B50446F748844215
:1015100008D101211020FFF7E5FB00211020FFF783
:10152000E1FB3EE0F248844209D101214804FFF783
:10153000C8FB00214FF40030FFF7C3FB31E0ED485A
:10154000844209D101218804FFF7BBFB00214FF43D
:101550008020FFF7B6FB24E0E748844209D101214F
:10156000C804FFF7AEFB00214FF40020FFF7A9FBF2
:1015700017E0E248844209D101210805FFF7A1FBE9
:1015800000214FF48010FFF79CFB0AE0DC48844206
:1015900007D101212020FFF7A5FB00212020FFF724
:1015A000A1FB10BD2DE9FF4705460E460024A146CC
:1015B00000BFA046B08900B100BF2C8A24F440547B
:1015C000F08804432C82AC8941F20C608443B088DB
:1015D00031890843718908430443AC81AC8A24F4FF
:1015E0004074B0890443AC826846FFF73AFABF48BA
:1015F000854202D0C248854202D1DDF80C9001E05C
:10160000DDF80890A88900F4004040B109EBC9005A
:1016100000EB091031684900B0FBF1F707E009EB76
:10162000C90000EB091031688900B0FBF1F76420B4
:10163000B7FBF0F004012009642101FB1078A889B0
:1016400000F4004040B1322000EBC800B0FBF1F0E4
:1016500000F00700044308E0322000EB081064218A
:10166000B0FBF1F000F00F0004432C81BDE8FF87D0
:101670004FF41651016000218180C18001810C214D
:10168000418100218181704710B502460020108AF7
:1016900020F470600B884C8823438C882343CC88CB
:1016A00023431843108210BD0021018041808180B6
:1016B000C180704721B1828942F40052828104E0E6
:1016C00082894DF6FF731A4082817047028B02F4C3
:1016D0007F420283028B0A430283704721B18289D1
:1016E00042F40042828103E08289C2F30E028281C9
:1016F000704721B1828A42F40062828204E0828AC9
:101700004FF2FF731A4082827047C1F30802828051
:10171000704701468888C0F308007047028A4FF678
:10172000F0731A400282028A0A430282704721B192
:10173000828942F00202828104E082894FF6FD73C1
:101740001A408281704782894FF2FF731A4082816A
:1017500082890A4382817047028A4FF6DF731A40FA
:101760000282028A0A430282704721B1028A42F44D
:101770008042028204E0028A4BF6FF731A40028222
:101780007047818941F001018181704721B1828ACE
:1017900042F00802828204E0828A4FF6F7731A4010
:1017A00082827047028BD2B20283028B42EA01220C
:1017B0000283704721B1828A42F02002828204E0D3
:1017C000828A4FF6DF731A408282704721B1828A83
:1017D00042F01002828204E0828A4FF6EF731A40D0
:1017E00082827047828A4FF6FB731A408282828A15
:1017F0000A438282704721B1828A42F002028282C9
:1018000004E0828A4FF6FD731A40828270471AB153
:10181000838A0B43838202E0838A8B4383827047EF
:10182000F0B50346002400260025002040F66A1784
:10183000B94200D100BF1846C1F3421401F01F069F
:10184000012707FA06F5012C01D10C3004E0022C27
:1018500001D1103000E014301AB107682F4307603F
:1018600002E00768AF430760F0BD02460020B1F513
:10187000007F00D100BF13880B400BB1012000E0B6
:101880000020704701F40072B2F5007F00D100BF64
:10189000CA430280704770B5024600240023002529
:1018A000002040F66A16B14200D100BFC1F34215D4
:1018B00001F01F03012606FA03F3012D02D19689D8
:1018C000334006E0022D02D1168A334001E0968AA9
:1018D00033400C12012606FA04F41688344013B182
:1018E0000CB1012000E0002070BD0000001001409C
:1018F0000044004000480040004C004000500040C0
:101900000014014010B50022002340F66A14A142E1
:1019100000D100BF0A1201249440A3B2DC4304802A
:1019200010BD0000002044490860091D0860091D21
:101930000860091D086041483F491431086070473C
:1019400000213D498279002A3AD00A46126803688C
:101950009A430B461A600A1D126803689A430B1DCE
:101960001A60027911440A6803681A430A60324A0D
:101970000832126803689A432F4B08331A601A1D05
:10198000126803689A432C4B0C331A604279102A70
:101990000ED11A1F126803681A43274B08331A60C6
:1019A0001A1D126803681A43234B0C331A600DE0AA
:1019B0002149427911440A6803681A430A6005E024
:1019C000027911440A6803689A430A60704700214B
:1019D000016001710C21417100218171704716492C
:1019E000103109680143144A1032116070470146F2
:1019F0000020114A143212680A400AB1012000E0A6
:101A0000002070470C4914310860704701460020DF
:101A10000022094B1B6803EA0102074B14331B68C1
:101A20000B4013B10AB1012000E0002070470249C9
:101A30001431086070470000003C0140FFFF7F0048
:101A40000E49086070470D49486070470B4988602F
:101A500070474AF6AA200949086070474CF6CC4006
:101A600006490860704701460020044AD2680A40CF
:101A70000AB1012000E00020704700000030004063
:101A80000CB50020019000907248006840F480304E
:101A90007049086000BF6F48006800F40030009093
:101AA0000198401C0190009818B90198B0F5A06FFA
:101AB000F1D16848006800F4003010B101200090B6
:101AC00001E0002000900098012846D16148403094
:101AD000006840F080505F49403108605E4800680F
:101AE00040F480405C4908605A4808300068594911
:101AF000083108600846006840F400400860084665
:101B0000006840F4A05008605448091F0860081F8E
:101B1000006840F08070091F086000BF4D480068F1
:101B200000F000700028F9D040F205604C490860D0
:101B300048480830006820F0030046490831086032
:101B40000846006840F00200086000BF41480830C5
:101B5000006800F00C000828F8D10CBD10B53D4815
:101B6000006840F001003B49086000203949083115
:101B70000860384800683B490840364908603A48E0
:101B8000091D0860081F006820F48020091F0860F4
:101B9000002030490C310860FFF772FF4FF0006001
:101BA0003249086010BD70B50020002202230024D5
:101BB0000221284D08352D6805F00C0020B10428BD
:101BC00006D0082834D107E0294D2A4E356033E08D
:101BD000294D284E35602FE01E4D2D1D2D68C5F373
:101BE00080541C4D2D1D2D6805F03F0154B1224D30
:101BF000B5FBF1F5174E361D3668C6F3881605FBA2
:101C000006F209E01A4DB5FBF1F5124E361D3668A5
:101C1000C6F3881605FB06F20E4D2D1D2D68C5F383
:101C200001456D1C6B00B2FBF3F5124E356003E00D
:101C30000F4D104E356000BF00BF064D08352D68B2
:101C4000C5F303150D4E705D0A4D2D68C540094E54
:101C5000356070BD003802400070004008544007F5
:101C6000003C0240FFFFF6FE1030002408ED00E0CB
:101C70000024F4001000002000127A00140000205C
:101C80000648804706480047FEE7FEE7FEE7FEE716
:101C9000FEE7FEE7FEE7FEE7FEE7FEE75D1B000866
:101CA0008901000810B501218805FFF7B4F910BDBE
:101CB0002DE9F05F07460E464FF0000842F210791A
:101CC000FC48056825E0FB480568B9F10000A9F16A
:101CD00001091ED100BF06F01DFC4FF47A71B0FB64
:101CE000F1F201FB120A06F015FC4FF47A71B0FB19
:101CF000F1FB52465946F0A04DF060FE2946F2A095
:101D00004DF05CFEF2A04DF059FE00BF2920BDE869
:101D1000F09F05F045000028D5D005F0040030B153
:101D20004FF003080420FFF792F94046EFE705F073
:101D3000010030B14FF001080120FFF788F940465B
:101D4000E5E7FFF702F9B84203D04FF0100840462C
:101D5000DDE74FF40C60FFF77AF90020FFF7FAF89F
:101D6000044604F4006008B11020D0E704F40070C9
:101D700008B12120CBE704F4807008B10820C6E741
:101D800006B134704046C2E72DE9F04F85B00446F5
:101D90000D4616461F46DDF838804FF0000914B195
:101DA0004FF0004000E000200090009840EA0570ED
:101DB00000902CB1B8F1000F02D04FF0006000E0AD
:101DC0000020009908430090009840EA46200090C7
:101DD0000098384300903420019040200290002069
:101DE00003904FF480600490BA48006806F058F8F9
:101DF0004FF48050FFF720F948B94FF40050FFF737
:101E00001BF920B94FF40060FFF716F9E0B100BFED
:101E100006F080FB4FF47A71B0FBF1F201FB120A7D
:101E200006F078FB4FF47A71B0FBF1FB524659464D
:101E3000A1A04DF0C3FD9F480168A7A04DF0BEFDD5
:101E4000A3A04DF0BBFD00BFAC48FFF700F968460A
:101E5000FFF75FF841463420FFF72AFF81469D488F
:101E6000006806F049F8484605B0BDE8F08F2DE956
:101E7000F84304460D4616461F46DDF820803B46D3
:101E8000324629462046CDF80080FFF77DFFBDE8A9
:101E9000F8837CB501A80023072219460090184654
:101EA000FFF7E5FF0446ECB100BF06F033FB4FF44B
:101EB0007A71B0FBF1F201FB120506F02BFB4FF437
:101EC0007A71B0FBF1F62A4631467BA04DF076FDE3
:101ED00021468BA04DF072FD7DA04DF06FFD00BF3F
:101EE00020467CBD9DF8040040F0020001900020D7
:101EF00000909DF80430072201460120FFF7B7FF4C
:101F00000446DCB100BF06F005FB4FF47A71B0FB6C
:101F1000F1F201FB120506F0FDFA4FF47A71B0FB05
:101F2000F1F62A46314664A04DF048FD21467BA0DB
:101F30004DF044FD66A04DF041FD1FE000BF7E481E
:101F4000006800B919E006F0E5FA4FF47A71B0FBC9
:101F5000F1F201FB120506F0DDFA4FF47A71B0FBE5
:101F6000F1F62A46314675A04DF028FD77A04DF0D8
:101F700025FD57A04DF022FD00BF00BF2046B0E771
:101F80002DE9FC41054601A80023132219460090C3
:101F90001846FFF76CFF0446F4B100BF06F0BAFA2A
:101FA0004FF47A71B0FBF1F201FB120606F0B2FABF
:101FB0004FF47A71B0FBF1F7324639463EA04DF04E
:101FC000FDFC214667A04DF0F9FC41A04DF0F6FC68
:101FD00000BF2046BDE8FC812DB19DF8040040F013
:101FE0000200019004E09DF8040020F0020001903E
:101FF000002000909DF80430132201460120FFF7D5
:1020000036FF0446DCB100BF06F084FA4FF47A7163
:10201000B0FBF1F201FB120606F07CFA4FF47A7184
:10202000B0FBF1F73246394623A04DF0C7FC2146FC
:1020300053A04DF0C3FC26A04DF0C0FC1FE000BF34
:102040003D48006800B919E006F064FA4FF47A716F
:10205000B0FBF1F201FB120606F05CFA4FF47A7164
:10206000B0FBF1F73246394634A04DF0A7FC4BA047
:102070004DF0A4FC16A04DF0A1FC00BF00BF20460F
:10208000A8E72DE9FF5F80460027BA46002497E0C5
:1020900001A80090092000EB082002190023414606
:1020A0001846FFF7E4FE05461DB1284604B0BDE81A
:1020B000F09F7FE0342C01405B453A2025642E25BB
:1020C0003033645D200000007374613A25780000AD
:1020D0000D0A00002C0000206D6D635F696F5F7258
:1020E000775F6469726563745F686F73742062758B
:1020F00073793A253038780A00000000FFFFBF00EE
:102100007364696F5F656E61626C655F7769646552
:10211000206572723A25640A000000007364696FDA
:102120005F656E61626C655F776964652065727278
:10213000313A25640A000000701600205B443A2002
:1021400025642E253033645D200000007364696FC0
:102150005F656E61626C655F77696465206F6B0AAD
:10216000000000006D6D635F7364696F5F73776972
:102170007463685F6873206572723A25640A0000B0
:102180006D6D635F7364696F5F7377697463685FB4
:10219000687320657272313A25640A006D6D635F61
:1021A0007364696F5F7377697463685F6873206FC6
:1021B0006B0A0000E1009DF8040088400743641C9E
:1021C000032CFFF465AF00BFFA48006800B91DE0BA
:1021D00006F0A0F94FF47A71B0FBF1F201FB12099D
:1021E00006F098F94FF47A71B0FBF1FB4A46594674
:1021F000AFF2B8004DF0E2FB3A464146EEA04DF09A
:10220000DDFBAFF234104DF0D9FB00BF00BF00BFC3
:1022100003A83A467F1C0023414600901846FFF76A
:1022200026FE054605B1DCE09DF80C00FF2800D134
:10223000D7E09DF80C0000B9D0E002A83A467F1C18
:102240000023414600901846FFF711FE054605B1F0
:10225000C7E09DF80800FF2800D1C2E000BFD548C4
:10226000006800B91EE006F055F94FF47A71B0FB32
:10227000F1F201FB120906F04DF94FF47A71B0FB4F
:10228000F1FB4A465946D2A04DF098FB9DF8082034
:102290009DF80C10D2A04DF091FBAFF2CC104DF098
:1022A0008DFB00BF00BFBAF1090F03D89DF80800ED
:1022B000802822DD00BFBF48006800B91BE006F09F
:1022C00029F94FF47A71B0FBF1F201FB120906F023
:1022D00021F94FF47A71B0FBF1FB4A465946AFF24F
:1022E000A4104DF06BFBC4A04DF068FBAFF22020B2
:1022F0004DF064FB00BF00BF73E09DF8080000F1E3
:102300008201C14807F0FEFB064626B96FF00B00BC
:1023100004B0BDE8F09F00240CE0B01C20443A1942
:102320000023414600901846FFF7A1FD054605B180
:1023300004E0641C9DF808008442EED300BF00BF97
:102340009C48006800B914E0B0A1B1A04DF036FB84
:102350004FF0000907E0B01C10F80910ADA04DF0D7
:102360002DFB09F10109A145F5D3ACA04DF026FBE9
:1023700000BF00BF1DB1304607F0EEF831E09DF818
:102380000C00152821D100BF8A48006800B91BE065
:1023900006F0C0F84FF47A71B0FBF1F201FB1209BC
:1023A00006F0B8F84FF47A71B0FBF1FB4A46594693
:1023B00087A04DF003FB311D99A04DF0FFFAAFF25D
:1023C000F0204DF0FBFA00BF00BF304607F0C4F824
:1023D0009DF8080007440AF1010A00BF002D3FF4F0
:1023E00017AF00BF9DF80800FF2800D10025284640
:1023F0008EE710B50020FFF744FE10BD2DE9FC412B
:102400008848002101604160816001A800231A46CC
:10241000194600901846FFF72AFD044604B180E1F2
:102420009DF8040000F00F0500BF6248006800B985
:102430001CE006F06FF84FF47A71B0FBF1F201FB8B
:10244000120606F067F84FF47A71B0FBF1F73246E6
:102450003946AFF218304DF0B1FA294672A04DF06E
:10246000ADFAAFF294304DF0A9FA00BF00BF022DD3
:1024700020DD00BF06F04EF84FF47A71B0FBF1F2A8
:1024800001FB120606F046F84FF47A71B0FBF1F743
:1024900032463946AFF2E0304DF090FA294667A057
:1024A0004DF08CFAAFF2D8304DF088FA00BF2920F9
:1024B000BDE8FC819DF8040000095A49086001A8A4
:1024C00000230822194600901846FFF7D0FC044666
:1024D00004B126E100BF3748006800B91DE006F0EE
:1024E00019F84FF47A71B0FBF1F201FB120606F015
:1024F00011F84FF47A71B0FBF1F732463946AFF27A
:10250000C4304DF05BFA9DF8041056A04DF056FA19
:10251000AFF244404DF052FA00BF00BF9DF80400F6
:1025200000F0020030B13F48806820F00100401CFC
:102530003C4988609DF8040000F0400030B1394803
:10254000806820F00200801C364988609DF80400F5
:1025500000F0800030B13348806820F00400001D96
:1025600030498860012D24DB01A80023122219467E
:1025700000901846FFF77BFC044600BF0D4800683A
:1025800000B981E005F0C6FF4FF47A71B0FBF1F2BB
:1025900001FB120605F0BEFF4FF47A71B0FBF1F7B4
:1025A00032463946AFF26C404DF008FA9DF80410FF
:1025B00062E078E070160020726561645F636973A1
:1025C0002C666E3A25642C616464723A25640A00B4
:1025D0005B493A2025642E253033645D20000000DD
:1025E00074706C20636F64653A25782C73697A6522
:1025F0003A25640A000000007475706C655F636EB4
:1026000074206F7665720A007809050863697300A3
:1026100025735B0025303278200000005D0D0A0034
:1026200025730A00CC1600205344494F5F434343AF
:10263000525F434343523A25780A0000756E726533
:10264000636F676E697365642043434352207374FC
:10265000727563747572652076657273696F6E202A
:1026600025640A005344494F5F434343525F43414B
:1026700050533A25780A0000FAA04DF09FF9AFF2C6
:10268000B0504DF09BF900BF00BF04B149E09DF888
:10269000040000F0010030B1F748806820F0080025
:1026A0000830F5498860022D3ADB01A80023132287
:1026B000194600901846FFF7DAFB044600BFEF48C2
:1026C000006800B91DE005F025FF4FF47A71B0FBFA
:1026D000F1F201FB120605F01DFF4FF47A71B0FB19
:1026E000F1F732463946AFF2AC504DF067F99DF83C
:1026F0000410E3A04DF062F9AFF22C604DF05EF9EA
:1027000000BF00BF04B10CE09DF8040000F0010020
:1027100030B1D948806820F010001030D649886068
:1027200000BFE4B100BF05F0F5FE4FF47A71B0FBD5
:10273000F1F201FB120605F0EDFE4FF47A71B0FBE9
:10274000F1F732463946AFF290604DF037F9D1A03B
:102750004DF034F9AFF288604DF030F900BF2046FB
:10276000A6E62DE9F0410646002742F21078CE4851
:10277000056809E0CC480568B8F10000A8F1010837
:1027800002D12920BDE8F08105F045000028F1D0F4
:1027900005F0040028B103270420FEF758FC384652
:1027A000F0E705F0010028B101270120FEF74FFCFA
:1027B0003846E7E7FEF7C9FBB04202D0102738469B
:1027C000E0E740F2FF50FEF742FC0020FEF7C2FBBC
:1027D0000446B648204008B93846D3E704F0004024
:1027E00008B11C20CEE704F0804008B10920C9E7F9
:1027F00004F0005008B10A20C4E704F0805008B18A
:102800000B20BFE704F0006008B10C20BAE704F029
:10281000806008B10D20B5E704F0807008B10E208B
:10282000B0E704F4000008B10F20ABE704F4800027
:1028300008B11020A6E704F4001008B11120A1E7A8
:1028400004F4801008B112209CE704F4002008B1C1
:10285000132097E704F4802008B1142092E704F4D1
:10286000003008B115208DE704F4803008B116203F
:1028700088E704F4004008B1172083E704F480409F
:1028800008B118207EE704F4005008B1192079E758
:1028900004F0080008B11A2074E7384672E7F0B572
:1028A00085B0054600240095072001904020029045
:1028B000002003904FF4806004906846FEF729FBE7
:1028C0000720FFF74EFF0446ECB100BF05F022FEE3
:1028D0004FF47A71B0FBF1F201FB120605F01AFE1B
:1028E0004FF47A71B0FBF1F732463946AFF6380053
:1028F0004DF064F821466EA04DF060F8AFF6300060
:102900004DF05CF821E000BF5C48006800B91BE0B6
:1029100005F000FE4FF47A71B0FBF1F201FB1206F4
:1029200005F0F8FD4FF47A71B0FBF1F73246394605
:10293000AFF2F8704DF042F864A04DF03FF8AFF6FA
:1029400070004DF03BF800BF00BF204605B0F0BD61
:102950002DE9F04706460F464FF0000842F2107985
:102960005148056809E050480568B9F10000A9F12F
:10297000010902D12920BDE8F08705F045000028B3
:10298000F1D005F0040030B14FF003080420FEF749
:102990005EFB4046EFE705F0010030B14FF0010863
:1029A0000120FEF754FB4046E5E7FEF7CEFAB042C1
:1029B00003D04FF010084046DDE740F2FF50FEF72D
:1029C00046FB0020FEF7C6FA044604F4604018B93E
:1029D000200C38804046CEE704F4005008B11320A4
:1029E000C9E704F4804008B11020C4E704F40040B3
:1029F00008B10F20BFE74046BDE7F0B585B00446FB
:102A0000002514B9292005B0F0BD00200090032056
:102A1000019040200290002003904FF480600490C9
:102A20006846FEF776FA21460320FFF791FF054638
:102A3000B5B100BF05F06EFD4FF47A71B0FBF1F255
:102A400001FB120605F066FD4FF47A71B0FBF1F759
:102A500032463946AFF6A0104CF0B0FF294641E0AF
:102A600048E000005344494F5F434343525F504F97
:102A70005745523A25780A00CC16002070160020DF
:102A80005344494F5F434343525F53504545443A93
:102A900025780A007364696F5F726561645F6363C0
:102AA0006372206572720A00342C014008E0FFFD59
:102AB00053445F53656C656374446573656C65630B
:102AC00074206572723A25640A00000053445F5313
:102AD000656C656374446573656C656374206F6BC6
:102AE0000A000000F3A04CF069FFAFF61C204CF088
:102AF00065FF00BF00BFF748006800B91CE005F0A3
:102B000009FD4FF47A71B0FBF1F201FB120605F0FA
:102B100001FD4FF47A71B0FBF1F732463946AFF65A
:102B2000E4104CF04BFF2188EBA04CF047FFAFF6D0
:102B300060204CF043FF00BF00BF284663E770B53C
:102B4000002542F21076EC48046807E0EA48046881
:102B5000301EA6F1010601D1292070BD04F0440009
:102B60000028F3D004F0040028B103250420FEF768
:102B70006EFA2846F1E740F2FF50FEF768FA284661
:102B8000EBE72DE9F04786B080460E460025CDF8EC
:102B900004800520029040200390002004904FF410
:102BA00080600590642713E001A8FEF7B2F9FFF7F3
:102BB000C6FF054605B114E00020FEF7CBF9044638
:102BC00004F0004000B105E00A2005F075FE7F1E0C
:102BD000002FE9D100BF0FB9292502E006B134600A
:102BE00000BFEDB100BF05F095FC4FF47A71B0FB6A
:102BF000F1F201FB120905F08DFC4FF47A71B0FB84
:102C0000F1FA4A465146AFF650304CF0D7FE29460D
:102C1000BAA04CF0D3FEAFF648304CF0CFFE00BF68
:102C2000284606B0BDE8F08770B5002542F2107462
:102C300000E0641E24B18020FEF7FEF90028F8D0E1
:102C400014B90325284670BD40F2FF50FEF7FFF986
:102C50002846F8E710B586B00024002001900290C5
:102C6000039004904FF48060059001A8FEF751F99D
:102C7000FFF7DAFF0446204606B010BD1CB50C2253
:102C80000821A548FDF7C7FD0C220921A248FDF740
:102C9000C2FD0C220A21A048FDF7BDFD0C220B212C
:102CA0009D48FDF7B8FD0C2211469B48FDF7B3FD8A
:102CB0000C2202219948FDF7AEFD03208DF8050096
:102CC0004FF49850009002208DF8040000208DF8F9
:102CD000060001208DF8070069468F48FDF710FDBA
:102CE00003208DF805008002009002208DF804007A
:102CF00000208DF8060001208DF8070069468648FF
:102D0000FDF7FEFC0420009002208DF80400002056
:102D10008DF8060001208DF8070069467F48FDF711
:102D2000EFFC4020009001208DF8040000208DF879
:102D3000060001208DF8070069467948FDF7E0FCA0
:102D40004020774908831CBD70B58AB0002405F087
:102D500036FB05F045FE73490860734805F092F8AC
:102D600072490860FFF78AFF0121C802FDF752FF90
:102D700001218805FDF70AFFFEF796F800221C21C5
:102D80006B48FDF7E4FB80208DF81C0000200290CA
:102D9000039004900590069002A8FEF790F8012099
:102DA000FEF720F90320FEF7AAF80120FEF7A4F8A9
:102DB00031208DF8040002208DF8050000208DF8E8
:102DC000060001208DF8070001A8FDF7ECF900BF0F
:102DD0000120FEF703F922F09AFF0446FFF73AFFBD
:102DE000044604B13DE009A90020FFF7CAFE0446ED
:102DF00004B136E009A90998FFF7C3FE044604B1FF
:102E00002FE008A8FFF7F9FD044604B129E0BDF85A
:102E100020100804FFF743FD044604B121E0FFF74A
:102E2000EDFA044604B11CE0FFF7E3FA0120FFF7D6
:102E3000A7F8044604B114E0FFF72BF8044604B1E8
:102E40000FE006208DF81C000020029003900490F3
:102E50004FF4006005900020069002A8FEF72FF8BE
:102E600000BF0CB300BF05F055FB4FF47A71B0FB07
:102E7000F1F201FB120505F04DFB4FF47A71B0FB46
:102E8000F1F62A463146AFF6D0504CF097FD29A016
:102E90004CF094FDAFF6C8504CF090FD00BF4FF4DD
:102EA0007A7005F009FD93E720460AB070BD01462F
:102EB00000204CE06D6D635F73656E645F72656CDE
:102EC00061746976655F61646472206572723A2527
:102ED000640A0000701600206D6D635F73656E6498
:102EE0005F72656C61746976655F61646472206F9E
:102EF0006B3A25780A000000342C01406D6D635F49
:102F000073656E645F696F5F6F705F636F6E64207F
:102F10006572723A25640A0000080240000C024003
:102F20000000024024000020700905082C00002049
:102F3000586402405344494FC9E8B1B8B3F5CABC1C
:102F4000BBAFCAA7B0DC00004910421CD0B20129B7
:102F5000FAD1704730B58FB004460D460021F848CD
:102F6000FDF768FA4FF0F851F548FDF7DCFAF44840
:102F7000FDF784F94FF000600090F2480190029450
:102F800040200390E81C80080490002005904FF436
:102F900080600690800007908000089000200990D3
:102FA0004FF440300A9004200B9003200C904FF413
:102FB00000000D9080100E906946E148FDF700FA80
:102FC0002021DF48FDF74CFA0121DD48FDF732FAF8
:102FD0000FB030BD30B58FB004460D460021D84843
:102FE000FDF728FA4FF0F851D548FDF79CFAD44880
:102FF000FDF744F94FF000600090D2480190029430
:1030000000200390E81C80080490002005904FF4F5
:103010008060069080000790800008900020099052
:103020004FF440300A9004200B9003200C904FF492
:1030300000000D9080100E906946C148FDF7C0F960
:103040002021BF48FDF70CFA0121BD48FDF7F2F938
:103050000FB030BD2DE9F041BB48006805F07FFDA1
:10306000BA48FDF7F4FF012140F21A30FDF7D3FF13
:103070000120FDF7CCFF6421B348006805F003FD93
:103080000446002C35D000BF05F044FA4FF47A71A5
:10309000B0FBF1F201FB120505F03CFA4FF47A7136
:1030A000B0FBF1F62A463146AFF6F4704CF086FCE0
:1030B000A7A04CF083FCAFF6E8704CF07FFC00BF9B
:1030C000002140F21A30FDF7A6FF4DF013FC074631
:1030D0009C485438006820F0F7009A495439086039
:1030E00038464DF001FC9948FDF7B1FF29209D4974
:1030F00008709C480078BDE8F0812DE9F04100257A
:1031000000BF99480078401C9749087000BF8D485F
:103110004C3800688B494439096800EA010404F41A
:10312000800098B14DF0E6FB80464FF48000854961
:103130004839086040464DF0D7FB012501208B49F6
:1031400081F82C00084623F00AF953E040F23A30A7
:10315000204000284DD004F4807018B1002081492F
:1031600008701EE000BF05F0D5F94FF47A71B0FB8E
:10317000F1F201FB120605F0CDF94FF47A71B0FBC4
:10318000F1F7324639467A484CF018FC214679A0CE
:103190004CF014FC79A04CF011FC00BF29207149BF
:1031A00008704DF0A7FB804666485438006820F050
:1031B000F7006449543908606148006820F0010054
:1031C0005F4908605F484438006800F480005D494A
:1031D0004439086040F23A30091F08600020FDF7CA
:1031E00016FF40464DF080FB01255748006805F06A
:1031F00088FC00BF2E4616B101F0D2FF04E05A4809
:103200000078401E5849087000BFBDE8F0812DE9E4
:10321000F04F93B00546894692469B46DDE91D6412
:103220000027002010901C980F905548006804F06B
:1032300037FE4FF48050FDF7FFFE48B94FF40050C1
:10324000FDF7FAFE20B94FF40060FDF7F5FEE0B19E
:1032500000BF05F05FF94FF47A71B0FBF1F201FBAA
:103260001200029005F056F94FF47A71B0FBF1F0BC
:10327000019001463E48029A4CF0A0FB41A04CF060
:103280009DFB3EA04CF09AFB00BF3048FDF7DFFEEF
:10329000A0B2FFF70CFE109006FB04F0039040482C
:1032A000099006FB04F00A90109800010B9015B1EC
:1032B00000200C9001E002200C90012E04D1FF2C84
:1032C00002D804200D9001E000200D9001200E9006
:1032D000ADB91D48006805F042FC012140F22A30DA
:1032E000FDF799FE1948FDF7B2FE03990F98FFF715
:1032F00071FE0120FDF78BFE09A8FDF736FE15B122
:103300004FF0004000E000200490049840EA09706B
:1033100004900498BBF1000F02D04FF0806100E0F0
:10332000002108430490049840EA4A200490012EAA
:1033300038D1FF2C36D804982043049037E00000A1
:1033400058640240802C014024000020FFFFBF0091
:10335000646D615F73656E642074696D656F75740B
:103360000A000000280000204D000020D816002090
:10337000B8200008743A25780A0000000D0A000001
:103380002C0000206D6D635F696F5F72775F6578F9
:1033900074656E64656420627573790A00000000CC
:1033A000FFFF0F0046F000610498084304903520A9
:1033B000059040200690002007904FF48060089010
:1033C00004A8FDF7A6FD12A93520FEF771FC0746FB
:1033D000F7B100BF05F09EF84FF47A71B0FBF1F23F
:1033E00001FB1200029005F095F84FF47A71B0FBE2
:1033F000F1F0019001464748029A4CF0DFFA394655
:1034000045A04CF0DBFAAFF28C004CF0D7FA00BFCD
:1034100055B109A8FDF7A9FD03990F98FFF79AFD8B
:10342000FFF718FE07463FE064214248006805F0B8
:103430002AFB8046B8F1000F36D000BF05F06AF8CD
:103440004FF47A71B0FBF1F201FB1200029005F02B
:1034500061F84FF47A71B0FBF1F0019001462D480C
:10346000029A4CF0ABFA3448016834A04CF0A6FA4A
:10347000AFF2F8004CF0A2FA00BF002140F22A306F
:10348000FDF7C9FD4DF036FA11902B480838006859
:1034900020F0F70028490839086011984DF024FA07
:1034A0002C48FDF7D4FD29270020FDF7B0FD27B3F8
:1034B00000BF05F02FF84FF47A71B0FBF1F201FB79
:1034C0001200029005F026F84FF47A71B0FBF1F08B
:1034D000019001460F48029A4CF070FA0DB11EA0FF
:1034E00000E01EA00146234632461DA04CF066FABD
:1034F000AFF278104CF062FA00BF2248006804F086
:10350000FBFC1FB9002013B0BDE8F08F4FF0FF3077
:10351000F9E70000B82000086D6D635F696F5F72A6
:10352000775F657874656E646564206572723A25AC
:1035300064200A0024000020342C0140646D615F87
:10354000726561642074696D656F75743A253038F1
:10355000780A0000FFFFBF00770000007200000043
:103560006D6D635F69775F65775F65787465726EAF
:10357000646564206572723A25732C25642C256479
:103580000A0000002C00002070B505460E460121FF
:10359000FE48FDF738FF012803D1FC48FDF7F9FE8E
:1035A0000446002416E000BF0221F848FDF72BFF77
:1035B0000028F9D0FF21F548FDF7EEFE00BF0121FC
:1035C000F248FDF720FF0028F9D0F048FDF7E1FEB2
:1035D0002855641CB442E6DB002070BD10B50246DD
:1035E0000B4600210CE000BFE8480830008800F0DE
:1035F00002000028F8D0505CE44C0C342080491CB8
:103600009942F0DB00BFE1480830008800F002007A
:103610000028F8D000BFDD480830008800F08000A6
:103620000028F8D110BD30B504460D460220D84917
:10363000088029462046FFF7D1FF0220D449891E81
:103640000880002030BDF0B506460F4614461D46E2
:103650000220CF49088039463046FFF7BFFF294690
:103660002046FFF7BBFF0220C949891E08800020C1
:10367000F0BD2DE9F04106460F4614461D460220D6
:10368000C349088039463046FFF7A8FF01204AF0B9
:10369000B2F929462046FFF777FF0220BC49891E70
:1036A00008800020BDE8F0812DE9FC410746052097
:1036B000019001236A46194601A8FFF7DAFF044684
:1036C000002C1EDA00BF04F025FF4FF47A71B0FB26
:1036D000F1F201FB120504F01DFF4FF47A71B0FB0B
:1036E000F1F62A463146ABA04CF068F92146ADA070
:1036F0004CF064F9B1A04CF061F900BF2046BDE880
:10370000FC819DF80000FAE738B5044606200090D9
:1037100000231A4601216846FFF7ABFF38BD2DE9AB
:10372000F0410546A648006800F57A6600BF2846C5
:10373000FFF7BAFF041E00DA0CE004F0010010B934
:103740000020BDE8F0810A2005F0B6F89C4800682A
:10375000B042ECD300BF00BF04F0DCFE4FF47A713E
:10376000B0FBF1F201FB120704F0D4FE4FF47A71C2
:10377000B0FBF1F83A46414686A04CF01FF991A003
:103780004CF01CF98DA04CF019F900BF0120D8E7CE
:103790007CB5044600BF9048006800B920E004F002
:1037A000B9FE4FF47A71B0FBF1F201FB120504F09F
:1037B000B1FE4FF47A71B0FBF1F62A46314687A08C
:1037C0004CF0FCF86068800A0021884ACDE90001CD
:1037D00079A187A04CF0F2F878A04CF0EFF800BF88
:1037E00000BF2046FFF79BFF08B101207CBD2046AB
:1037F000FFF78AFFC720E073012104F10F00FFF7F4
:1038000012FF0020F2E710B5037B0824C4EBC303CA
:1038100021FA03F35370037B1024C4EBC30321FA92
:1038200003F39370037B1824C4EBC30321FA03F35F
:10383000D370037B2024C4EBC30321FA03F3137179
:1038400010BD01468889401C704770B504460D467E
:103850002046FFF764FF08B1012070BD2046FFF746
:1038600053FF2020E07304F10F0229462046FFF7A2
:10387000CAFF2046FFF7E5FF0646314604F10F0078
:10388000FFF7D1FE0020E8E72DE9FC4705460C468E
:103890005B4E00BF5048006800B91EE004F03AFEDD
:1038A0004FF47A71B0FBF1F201FB120804F032FE22
:1038B0004FF47A71B0FBF1F94246494647A04CF00B
:1038C0007DF850A3504A3CA150A0CDE900544CF0E3
:1038D00075F83AA04CF072F800BF00BF2819716863
:1038E000884203D96FF01500BDE8FC870120284904
:1038F000891E08807068A04209D13046FFF748FF52
:10390000B8B10127012022490880801FECE70EE0B2
:1039100029463046FFF799FF28B1012701201C49AD
:103920000880801FE0E7308905443089241A002C84
:10393000EEDC00270120164908803846D4E72DE93F
:10394000FC4706460C4617462D4D00BF224800682E
:1039500000B980E004F0DEFD4FF47A71B0FBF1F2C3
:1039600001FB120804F0D6FD4FF47A71B0FBF1F9B7
:103970004246494619A04CF021F82AA32B4A0EA131
:103980002BA0CDE900644CF019F85FE0003800404E
:103990001A0802405B453A2025642E253033645DC9
:1039A000200000006572726F7220256420726561CC
:1039B00064696E672053520A000000000D0A00007F
:1039C00098000020776169745F74696C6C5F726540
:1039D0006164792065727200701600205B443A20A1
:1039E00025642E253033645D20000000860905081B
:1039F00025733A20257320256C6C644B69420A00BC
:103A000008170020617400009109050825733A2009
:103A1000257320257320307825782C206C656E2046
:103A200025640A0066726F6D000000009E0905089B
:103A300025733A2025732025732030782530387877
:103A40002C206C656E20257A640A0000AFF2940089
:103A50004BF0B4FF00BF00BF14B90120BDE8FC87E4
:103A600030196968884202D96FF01500F6E72846D8
:103A7000FFF755FE08B10120F0E70320E87305F1D8
:103A80000F0231462846FFF7BEFE2846FFF7D9FE53
:103A9000804623463A46414605F10F00FFF7E9FD0F
:103AA0000020DBE72DE9FC4780460C461746DFF88F
:103AB000EC9300252146FA4806F024F805461DB986
:103AC0004FF0FF30BDE8FC874846FFF728FE032093
:103AD0008DF800006A4641464846FFF794FE484686
:103AE000FFF7AFFE064623462A4631466846FFF7F3
:103AF000C0FD2246294638464BF06CFC002850D0C9
:103B000000BF04F007FD4FF47A71B0FBF1F201FB46
:103B1000120604F0FFFC4FF47A71B0FBF1FA324662
:103B20005146AFF290104BF049FFDEA04BF046FF3C
:103B3000AFF278104BF042FF00BF00BFDF480068D3
:103B400000B910E0DCA1DEA04BF038FF002604E055
:103B5000B95DDCA04BF032FF761CA642F8DBDBA09F
:103B60004BF02CFF00BF00BF00BFD448006800B975
:103B700010E0D1A1D2A04BF021FF002604E0A95D06
:103B8000D0A04BF01BFF761CA642F8DBCFA04BF079
:103B900015FF00BF00BF284605F0DEFC4FF0FF30E8
:103BA00090E7284605F0D8FC00208BE72DE9FC5F64
:103BB00006460D469246B94C4FF0000B00BFBF4879
:103BC000006800B922E004F0A5FC4FF47A71B0FB64
:103BD000F1F201FB120804F09DFC4FF47A71B0FB86
:103BE000F1F0424601460190AFF210204BF0E6FEA4
:103BF000B7A3B84AB0A1AFF2C810CDE900654BF049
:103C0000DDFEAFF248204BF0D9FE00BF00BF01201F
:103C1000B149088015B94FF0FF3B61E07019616848
:103C2000884202D94FF0FF3B5AE02046FFF777FD6C
:103C300010B14FF0FF3B53E02046FFF765FD022037
:103C4000E07304F10F0231462046FFF7DCFD608986
:103C5000401E00EA060909EB0500618988420BD87D
:103C60002046FFF7EEFD80462B465246414604F1C2
:103C70000F00FFF7E8FC32E06089A0EB090720465F
:103C8000FFF7DFFD3B4652460146019004F10F006D
:103C9000FFF7D9FCB8461FE0A5EB08076089B842DA
:103CA00000D2678906EB080104F10F022046FFF7F6
:103CB000AAFD2046FFF733FD2046FFF725FD2046ED
:103CC000FFF7BFFD0AEB08023B460146019004F1F5
:103CD0000F00FFF7B8FCB844A845DDD300BF00BF14
:103CE000BBF1000F1DD000BF04F014FC4FF47A713B
:103CF000B0FBF1F201FB120804F00CFC4FF47A71F6
:103D0000B0FBF1F0424601460190AFF278304BF043
:103D100055FE72A04BF052FEAFF260304BF04EFEFB
:103D200000BF01206C49891C08805846BDE8FC9FF3
:103D300038B55A4C2046FFF7F2FC08B1002038BDD8
:103D40009F20E07303236A46012104F10F00FFF76F
:103D500090FC0098F3E72DE9F04104460D46164625
:103D60004E48807B00BB00BF04F0D4FB4FF47A7157
:103D7000B0FBF1F201FB120704F0CCFB4FF47A71B7
:103D8000B0FBF1F83A464146AFF2F8304BF016FE80
:103D900057A04BF013FEAFF2DC304BF00FFE00BF2C
:103DA0004FF0FF30BDE8F08104F50020324629468F
:103DB000FFF7C5FDF6E72DE9F041524D00BF3F4842
:103DC000006800B91CE004F0A5FB4FF47A71B0FB69
:103DD000F1F201FB120604F09DFB4FF47A71B0FB87
:103DE000F1F732463946AFF20C404BF0E7FD294679
:103DF00045A04BF0E3FDAFF23C404BF0DFFD00BFD0
:103E000000BF2648807B00BB00BF04F083FB4FF45B
:103E10007A71B0FBF1F201FB120604F07BFB4FF468
:103E20007A71B0FBF1F732463946AFF298404BF069
:103E3000C5FD2FA04BF0C2FDAFF280404BF0BEFDA0
:103E400000BF4FF0FF30BDE8F08129464FF400205D
:103E5000FFF71AFD0446FCB100BF04F05BFB4FF412
:103E60007A71B0FBF1F201FB120604F053FB4FF440
:103E70007A71B0FBF1F732463946AFF2E8404BF0C9
:103E80009DFD27A04BF09AFDAFF2D0404BF096FD80
:103E900000BF4FF0FF30D6E74AE0000008170020CF
:103EA000AA090508636865636B5F666C6173685F88
:103EB0006461746120657272000000007016002059
:103EC00025735B0025303278200000005D0D0A006C
:103ED000746F0000B9090508180802406D3235708A
:103EE00038302077726974652065727200000000B6
:103EF000666C617368206E6F7420617661696C61B5
:103F0000626C650000CF0300BFAACABCD0B4C8EB86
:103F1000B9CCBCFEA3ACB4F3D0A13A256400000038
:103F2000666C6173682065726173652065727200EA
:103F3000294A29464FF40020FFF738FE0446FCB119
:103F400000BF04F0E7FA4FF47A71B0FBF1F201FB25
:103F5000120604F0DFFA4FF47A71B0FBF1F7324643
:103F60003946AFF2D0504BF029FD1CA04BF026FD96
:103F7000AFF2B8504BF022FD00BF4FF0FF3062E7C8
:103F800000BF1A48006800B91BE004F0C3FA4FF400
:103F90007A71B0FBF1F201FB120604F0BBFA4FF4A8
:103FA0007A71B0FBF1F732463946AFF2D0504BF0A0
:103FB00005FD0FA04BF002FDAFF200604BF0FEFCE0
:103FC00000BF00BF00203EE70020704710B5502121
:103FD0000B48FDF73EFA10BDB0180508666C61731A
:103FE000682077726974652065727200701600200F
:103FF000B9CCBCFED0B4C8EBB3C9B9A60000000070
:104000000038004070B5754CE01C20F00304744883
:10401000051B2946204605F056FA70BD70477047CB
:1040200010B5FCF70AFF10BD704770B56D48046805
:104030004FF080706B49086000BF04F06BFA4FF4DA
:104040007A71B0FBF1F201FB120504F063FA4FF450
:104050007A71B0FBF1F62A46314663A04BF0AEFC14
:1040600065A04BF0ABFC66A04BF0A8FC00BF04F0D1
:104070000040D0B100BF04F04DFA4FF47A71B0FBAC
:10408000F1F201FB120504F045FA4FF47A71B0FB2E
:10409000F1F62A46314654A04BF090FC59A04BF063
:1040A0008DFC57A04BF08AFC00BF04F08040D0B1DB
:1040B00000BF04F02FFA4FF47A71B0FBF1F201FB6C
:1040C000120504F027FA4FF47A71B0FBF1F62A4694
:1040D000314645A04BF072FC4DA04BF06FFC48A060
:1040E0004BF06CFC00BF04F00050D0B100BF04F0F6
:1040F00011FA4FF47A71B0FBF1F201FB120504F0F2
:1041000009FA4FF47A71B0FBF1F62A46314636A02F
:104110004BF054FC41A04BF051FC39A04BF04EFC4D
:1041200000BF04F08050D0B100BF04F0F3F94FF4A9
:104130007A71B0FBF1F201FB120504F0EBF94FF4D8
:104140007A71B0FBF1F62A46314627A04BF036FCD7
:1041500035A04BF033FC2AA04BF030FC00BF04F03C
:104160000060D0B100BF04F0D5F94FF47A71B0FB14
:10417000F1F201FB120504F0CDF94FF47A71B0FBB6
:10418000F1F62A46314618A04BF018FC29A04BF056
:1041900015FC1BA04BF012FC00BF04F08060D0B1F6
:1041A00000BF04F0B7F94FF47A71B0FBF1F201FBF4
:1041B000120504F0AFF94FF47A71B0FBF1F62A461C
:1041C000314609A04BF0FAFB1DA04BF0F7FB0CA009
:1041D0004BF0F4FB00BF002070BD0000107E0020FB
:1041E00000000220743802405B453A2025642E25E9
:1041F0003033645D2000000072657365743A00001E
:104200000D0A00006C6F7720706F7765720A0000EE
:1042100077696E6477207764670A0000696E646569
:1042200070207764670A0000736F6674207265738C
:1042300065740A00706F722072657365740A0000FD
:10424000757365722072657365740A0010B5044653
:1042500024B18021FE48FCF7D1FA03E08021FC481C
:10426000FCF7CAFA10BD1CB50446BCB94FF47F4038
:10427000009001208DF8040000208DF80600032036
:104280008DF8050000208DF807006946F148FCF71D
:1042900037FA4021EE48FCF7AFFA13E04FF47F40C5
:1042A000009000208DF8040003208DF80500012007
:1042B0008DF807006946E748FCF722FA4021E448F8
:1042C000FCF79CFA1CBD10B504462CB14FF40061FC
:1042D000E148FCF793FA04E04FF40061DE48FCF794
:1042E0008BFA10BD1CB50446C4B94FF4F8400090D9
:1042F00001208DF8040000208DF8060003208DF8C1
:10430000050000208DF807006946D448FCF7F8F94D
:104310004FF40041D148FCF76FFA14E04FF4F84035
:10432000009000208DF8040003208DF80500012086
:104330008DF807006946C948FCF7E2F94FF40041DF
:10434000C648FCF75BFA1CBD10B504462046FFF7D3
:104350007DFF10BD10B504462046FFF7B4FF10BD29
:1043600010B504462046FFF77EFF10BD10B5044689
:104370002046FFF7B7FF10BD1CB5C02000900120FC
:104380008DF8040000208DF8060003208DF805004C
:1043900001208DF807006946AD48FCF7B1F94FF4EC
:1043A0000060009001208DF8040000208DF80600C8
:1043B00003208DF8050001208DF807006946A64806
:1043C000FCF79EF94FF40040009001208DF80400A6
:1043D00000208DF8060003208DF8050001208DF8DF
:1043E000070069469D48FCF78BF90120FFF7ACFFF9
:1043F0000120FFF7AFFF0120FFF7B2FF0120FFF719
:10440000B5FF1CBD10B50124FFF7B6FF204610BD57
:1044100038B504460D46012D06D19DF8000020F068
:104420000100401C009004E09DF8000020F0010015
:1044300000909DF8000000F0010221468748FCF73B
:10444000DFF938BD10B50020FFF790FF00214FF4D1
:104450008050FFF7DDFF0120FFF788FF10BD38B562
:10446000044600200090B4F5805F27D009DCB4F545
:10447000807F44D0B4F5806F15D0B4F5006F49D17A
:1044800006E0B4F5005F24D0B4F5804F42D12BE0B4
:104490004FF400617148FCF795F99DF8001060F346
:1044A000000100913BE04FF480616C48FCF78AF911
:1044B0009DF8001060F30001009130E04FF480514E
:1044C0006648FCF77FF99DF8001060F30001009149
:1044D00025E04FF400516148FCF774F99DF8001095
:1044E00060F3000100911AE04FF480415B48FCF753
:1044F00069F99DF8001060F3000100910FE04FF49E
:1045000080715648FCF75EF99DF8001060F30001D9
:10451000009104E0214652A04BF050FA00BF00BFCA
:104520009DF8000000F0010008B1012500E0002521
:10453000284638BD70B540F2FF15002600205049CE
:1045400008704FF48070FFF78AFF0446002C57D1A3
:104550004FF400413F48FCF735F94949097860F3C9
:104560000001474801704FF480413A48FCF72AF9AE
:104570004349097860F34101414801704FF400510B
:104580003448FCF71FF93E49097860F382013C4842
:1045900001704FF480512F48FCF714F9384909781D
:1045A00060F3C301364801704FF400612948FCF7FD
:1045B00009F93349097860F30411314801704FF467
:1045C00080612448FCF7FEF82D49097860F3451115
:1045D0002B480170691C1F48FCF7F4F8284909783A
:1045E00060F38611264801704FF480711948FCF77A
:1045F000E9F82349097860F3C7112148017005786B
:10460000284670BD70B540F2FF154FF48070FFF77B
:1046100026FF0446002C7CD14FF400410D48FCF7E6
:10462000D1F81749097860F30001154801704FF47B
:1046300080410848FCF7C6F81149097860F3410148
:104640000F4801704FF400510248FCF7BBF819E025
:1046500000080240000C024000040240001002402A
:104660007265616420737461747573203078257885
:10467000206E6F20646566696E65210A0000000087
:10468000300000207249097860F38201704801709F
:104690004FF480516F48FCF795F86D49097860F345
:1046A000C3016B4801704FF400616A48FCF78AF857
:1046B0006749097860F30411654801704FF480611F
:1046C0006448FCF77FF86249097860F34511604857
:1046D0000170691C5F48FCF775F85D49097860F363
:1046E00086115B4801704FF480715A48FCF76AF8F4
:1046F0005749097860F3C7115548017001214803F3
:10470000FFF786FE00214FF48040FFF781FE012075
:1047100000E007E049F06FF94D4805780121880372
:10472000FFF776FE284670BD38B5044600949DF824
:10473000000000F001024FF400414648FCF760F829
:104740009DF80000C0F340024FF480414148FCF75F
:1047500057F89DF80000C0F380024FF400513D4827
:10476000FCF74EF89DF80000C0F3C0024FF48051F2
:104770003848FCF745F89DF80000C0F300124FF4EC
:1047800000613448FCF73CF89DF80000C0F340128B
:104790004FF480612F48FCF733F89DF80000C0F318
:1047A00080124FF400712B48FCF72AF89DF80000A6
:1047B000C2094FF480712748FCF722F838BD10B5C4
:1047C0004FF40060FFF74BFE0446012C03D122A0FA
:1047D0004BF0F4F802E025A04BF0F0F84FF48060C5
:1047E000FFF73DFE0446012C03D125A04BF0E6F86F
:1047F00002E028A04BF0E2F84FF48050FFF72FFEC4
:104800000446012C03D128A04BF0D8F802E02BA0DD
:104810004BF0D4F84FF40050FFF721FE0446012C72
:1048200003D12BA04BF0CAF802E02EA04BF0C6F843
:104830004FF48040FFF713FE0446012C03D12EA055
:104840004BF0BCF802E030A04BF0B8F810BD00000F
:1048500030000020000C02404D43555F534C435440
:104860002069732031210D0A000000004D43555F7F
:10487000534C43542069732030210D0A000000007E
:104880004D43555F4552524F522069732031210DDF
:104890000A0000004D43555F4552524F5220697344
:1048A0002030210D0A0000004D43555F5045525203
:1048B0004F522069732031210D0A00004D43555F8E
:1048C000504552524F522069732030210D0A00008A
:1048D0004D43555F425553592069732031210D0ACC
:1048E000000000004D43555F425553592069732025
:1048F00030210D0A000000004D43555F41434B201D
:1049000069732031210D0A004D43555F41434B200F
:1049100069732030210D0A0010B54FF48070FDF747
:1049200075F8002835D04048006840B93F4940A09C
:104930004BF044F84FF48070FDF779F810BDFFF7A5
:10494000F9FD84B204F48070F8B937480068008833
:1049500040F2FF71884213D233480068028832481F
:1049600000680088401C304B1B6818802E48006887
:10497000801D845403F0CEFD2B490968488004E073
:1049800040F2FF702849096808804FF48070FDF7F5
:104990004EF800BFD2E73EB500BF2648006800B918
:1049A0001AE003F0B7FD4FF47A71B0FBF1F201FBAE
:1049B000120403F0AFFD4FF47A71B0FBF1F522461B
:1049C00029461DA04AF0FAFF1F4920A04AF0F6FF31
:1049D00021A04AF0F3FF00BF00BF4FF4A060FBF737
:1049E000DDFB08210420FCF757FD4FF48070009098
:1049F00000208DF804000C208DF8050001208DF8B2
:104A000006006846FCF79CFF17208DF80800002080
:104A10008DF8090003208DF80A0001208DF80B00A5
:104A200002A8FBF7C0FB3EBD94160020C60905088E
:104A300025730000701600205B493A2025642E255E
:104A40003033645D20000000D90905082573206318
:104A50006F6D6D696E6700000D0A00000146002051
:104A600002E0491C421CD0B20A78002AF9D17047F2
:104A70002DE9F04105460E4614460027FA48007815
:104A800020B1112020700020BDE8F0812878012895
:104A900008D0022807D0032802D0042804D100E05F
:104AA00000BF00BF00BF03E0012020700020EBE743
:104AB00000BF03F031F90746286930603068FFF71E
:104AC000CDFF8046384603F02BF900202070404689
:104AD000DAE72DE9F04105460E4614460027E24884
:104AE000007818B112202070BDE8F08128780128E4
:104AF00008D0022807D0032802D0042804D100E0FF
:104B000000BF00BF00BF02E001202070ECE700BF43
:104B100003F002F907462E61384603F001F9002040
:104B2000207000BFE0E7F0B5024612F8384F9578E4
:104B30005678383A0B4618680FE000F10B073F5DD6
:104B4000B74300F10B0C0CF8047067463F5D17B9D2
:104B5000877AAF4387721B1D18680028EDD1F0BD1E
:104B6000C249C34A1278885CC249095CBF4A515C99
:104B700001EBC001C04A1170704710B5002403F06A
:104B8000CBF80446B8480078F8B9BC480078E0B9DA
:104B9000FFF7E6FFBA48B849097850F82100B9494B
:104BA0000860B5480078B849097888420DD0B54802
:104BB0000068C06B401CB3490968C863B34800680B
:104BC000401CB249086003F0BEF8204603F0A8F884
:104BD00010BD70B501460024AD4D2D68EC61AC4CA4
:104BE000246821620B4618681BE0A94C246894F8DD
:104BF000385000F10B04645DA54D2D6895F83950CF
:104C00002C43A34D2D6895F8386000F10B05AC5589
:104C1000847A9F4D2D6895F83A502C4384721B1D61
:104C200018680028E1D19A4C246894F83820914CF7
:104C3000A45C974D2D6895F83950AC438D4DAC541C
:104C40002C46A45C44B9924C246894F83A50884CA1
:104C50002478AC43864D2C7070BD2DE9FF4F83B096
:104C600081460E461546DDF84080002000903060F9
:104C7000CA46DAF8004018E02078062807D2DFE8B4
:104C800000F00604050307080AE009E008E000BF99
:104C900000BF012088F80000002007B0BDE8F08FB9
:104CA00000BF0AF1040ADAF80040002CE4D16E4893
:104CB000007820B1022088F800000020EDE76F485E
:104CC000007820B10D2088F800000020E5E703F00F
:104CD00023F800900020029083460190CA46DAF83B
:104CE00000405DE02078062849D2DFE800F0481750
:104CF0002A03494A208960B12089401E208110C6BC
:104D000001200290002001C50BF101001FFA80FB79
:104D100003E0019840F0010001903CE0606858B168
:104D2000606801C50020606010C6012002900BF190
:104D300001001FFA80FB03E0019840F0020001909F
:104D400029E06768F88AA8B13969081D38610868E0
:104D500001C5B9683869884201D178683861F88A34
:104D6000401EF88210C6012002900BF101001FFACC
:104D700080FB03E0019840F0040001900BE000BFCD
:104D800000BF009802F0CCFF00203060012088F8BE
:104D90000000584681E700BF0AF1040ADAF8004033
:104DA000002C9FD10298012809D100203060009882
:104DB00002F0B6FF002088F8000058466DE734483E
:104DC000006890F83400019941F0800108433049AF
:104DD000096881F8340000202D49096881F8350000
:104DE0002B490698096808634846FFF7F2FE0098C9
:104DF00002F096FFFFF7C1FE02F08EFF00902448FC
:104E0000006890F8350020B101281BD0022818D185
:104E100000E000BF1E480068C4693CB110C6002015
:104E200030600BF101001FFA80FB09E001201849F6
:104E3000096881F83500494615480068FFF773FE98
:104E400006E000BF494612480068FFF76CFE00BF4D
:104E500000BF0F48006890F83500D8B1012842D053
:104E600002283FD138E000004D000020E30905088A
:104E70005100002052000020500000204E00002071
:104E8000B01C0020680000204F00002034000020EB
:104E900060000020207806280DD2DFE800F00C0624
:104EA00007030D0E002001C511E000BFF84800689F
:104EB000406A01C50BE000BF00BF009802F030FF60
:104EC00000203060012088F800005846E5E600BF69
:104ED000002088F800000CE0002001C50E2088F8B2
:104EE000000006E000BF002001C50A2088F800008D
:104EF00000BF00BF0020E649096881F83400E4499A
:104F0000096881F83500E2490968C861E049096823
:104F10000862DF4909684862009802F001FF5846BC
:104F2000BBE67CB5002514E06946284602F0B6F8D9
:104F3000064666B9D74850F8254044B1012C06D042
:104F4000D4E9020100EB8100A0640198E064681CD0
:104F5000C5B2202DE8D97CBD002403E04FF4FA60EF
:104F600002F0ACF9CC4800780028F7D0CB480068B4
:104F70006421B0FBF1F0C94908600846006828B90F
:104F80000020C7490870FF2002F0CAF800BF02F0F5
:104F9000C3FE0446C3480068C34908600020C149F5
:104FA0000860204602F0BCFEBF480068BB490968A3
:104FB000B0FBF1F0C0F16400B949087002F0F4FDF3
:104FC000FFF7AFFF4FF47A7002F078F9DFE700B532
:104FD00087B0002003214023CDE90230CDE9041041
:104FE000B2484FF6FE711F2300F1FC02CDE900101C
:104FF0000021AFF29B0001F05AFE06AAACA11F20CF
:1050000001F0CEFF07B000BD002400BF02F084FE17
:105010000446A4480068401CA2490860204602F0EB
:105020007FFE02F0B7FDF1E700B587B00020032155
:105030002023CDE90230CDE90410A1484FF6FF71DD
:1050400000F17C02CDE900100021AFF2430001F035
:105050002EFE06AA9BA1202001F0A2FF07B000BDF2
:1050600004E0002200F8012B4A1E91B20029F8D179
:10507000704730B54FF470719648FFF7F1FF954BCC
:1050800003F11405002408E0002018705D6092A070
:10509000186114331435601C84B22F2CF4D3002013
:1050A000187058608CA018618A488C49086030BD1F
:1050B00030B54FF4B8618A48FFF7D2FF84217548B4
:1050C000FFF7CEFF864B03F15C05002406E05D612F
:1050D00081A018655C335C35601CC4B20F2CF6D31C
:1050E000002058617CA0186500207E4908607C483B
:1050F0007D49086030BD00227C4B1A707C4900203D
:1051000004E0002201F8012B421CD0B20528F8D39C
:105110000022784B1A70784B1A70784B1A605C4BEF
:105120001A60704700207649086076490870764911
:1051300008707649087076490870764908605949C0
:10514000086059490860554908605349087070471C
:1051500010B502F00DFDFFF7E5FFFFF7CCFFFFF7FD
:10516000A7FFFFF786FF00F0ADFE00F094FF01F00F
:1051700090FAFFF759FFFFF72AFF02F07BFC02F0DD
:10518000FBFC10BD62480078012808D15D4800781A
:10519000FF2804D25B480078401C5A4908707047C9
:1051A00010B500245A480078012830D102F0B4FD2F
:1051B00004465448007820B152480078401E5149B6
:1051C000087050480078F8B94F480078E0B9FFF708
:1051D000C7FC30484849097850F821004749086021
:1051E000454800784349097888420DD04348006813
:1051F000C06B401C41490968C86346480068401CB0
:105200004449086002F0A4FD204602F089FD10BD6B
:1052100010B500243E480078012811D102F07CFD31
:1052200004463848007840B937480078FF2804D24F
:1052300035480078401C34490870204602F070FD63
:1052400010BD10B5002432480078012867D102F063
:1052500063FD04462C480078C0B12B480078401EFE
:10526000294908700846007860B92648007828B9AE
:10527000204602F055FDFFF780FC50E0204602F08A
:105280004FFD4CE0204602F04BFD48E044E00000BA
:1052900060000020B01C00204C00002044000020D2
:1052A000400000205C00002048000020301B00204F
:1052B00075432F4F532D49492053746174000000EA
:1052C000301C002075432F4F532D49492049646CF1
:1052D00065000000201700203F000000380000207B
:1052E000341D00206C0000206400002051000020CC
:1052F000520000204F0000205000002068000020D5
:105300007C0000204D0000204E00002058000020AE
:105310005700002034000020204602F001FD10BD9F
:1053200010B5EB48007890B9FFF71AFCE94800780F
:10533000E9490870E948E749097850F82100E84947
:10534000086008460068E749086002F0ECFC10BD00
:1053500010B50024022001F0B1FF02F0DDFC04468C
:105360000020E1490860204602F0DAFC4FF47A7030
:1053700001F0A4FF02F0D0FC0446DB480068DB49E2
:1053800008600120DA490870204602F0C9FC10BD0F
:1053900070B5002602F062FC02F0BEFC0646D5485D
:1053A0000068401CD3490860304602F0B9FCC84888
:1053B0000078012853D1D048007820B1012804D0CA
:1053C000022809D103E001250BE0002509E00125B1
:1053D0000120C949087004E001250020C649087071
:1053E00000BF00BF05B970BDC448046833E002F0D7
:1053F00093FC0646206B50B3206B401E2063206B4D
:1054000028BB94F8340000F0370040B114F8340F92
:1054100020F03700207001206070343C02E0002052
:1054200084F8350094F8340000F0080078B9383476
:10543000A078B34909780843B14908702078B14988
:10544000085C6178084314F83819AE4A505464690E
:10545000304602F065FC94F836002028C7D100BF22
:10546000C1E740F221107047704710B590F838201E
:1054700001F10B039B5C90F83940A34301F10B044D
:10548000A35423469B5C23B98B7A90F83A40A343FC
:105490008B7210BD2DE9F04F05460F469046994698
:1054A000A87A99490E5C05F10B00805D11F800B0F7
:1054B0000BEBC60000F0FF0A884850F82A40002095
:1054C0002434E0602760207C20EA0800207484F8FF
:1054D0001190207C243C00F0080068B994F83A0050
:1054E000874909780843864908708648805D94F8A2
:1054F000391008438349885529462046FFF7B5FFF0
:10550000206A20B12046216AFFF70DFBE561504675
:10551000BDE8F08F10B5734A1268D061714A126805
:1055200092F8383000F10B02D25C6E4B1B6893F896
:1055300039301A436B4B1B6893F8384000F10B036A
:105540001A55827A674B1B6893F83A301A43827275
:10555000644A126892F838106A4A525C614B1B68C0
:1055600093F839309A43674B5A541A46525C42B901
:105570005C4A126892F83A30614A12789A43604B5A
:105580001A7010BD0023837200F10B01002204E0A9
:10559000002301F8013B531CDAB2052AF8D3704707
:1055A00005E011F8013B00F8013B531E9AB2002AB6
:1055B000F7D170472DE9F84F05460F4690469946BA
:1055C000DDE90AAB0020009002F0A6FB00904F48F6
:1055D0000468002C76D01C3454F8080C4B49086041
:1055E000009802F09DFB44F81C7CA57600202076F4
:1055F0006076606144F818BC44F810AC44F8148C30
:105600000C9824F80C0C24F80A9C0020E077E81091
:10561000207705F00700E076217F01208840A07701
:10562000E17E012088406077002020606060E060BB
:10563000A0602062A0626062E0622063AFF2683026
:1056400060631C3C002606E0002104F1540040F891
:105650002610701CC6B2002EF6D0204602F0F8FAD2
:10566000204602F08AFA02F057FB00901B4840F8EF
:1056700025402248006860610020A0611F48006842
:1056800010B11E48006884611C4804603834A0785A
:105690001B49097808431A49087020781949085CA1
:1056A0006178084314F83819164A5054184800789D
:1056B000401C17490870009802F032FB0020BDE83A
:1056C000F88FFFE7009802F02BFB4220F7E700007D
:1056D00057000020500000204F000020B01C002088
:1056E00068000020600000205C00002044000020D2
:1056F0004C0000207C000020700000206C00002086
:105700005100002052000020E30905086400002039
:10571000580000202DE9F05F04460F4691461E46D2
:105720004FF0000B2078052804D0012030700020B5
:10573000BDE8F09F09F0800ABAF1000F04D029F00B
:1057400080094FF0010801E04FF0000800203070A0
:1057500002F0E2FA8346B9F1000F2CD0B9F1010F43
:105760003BD0B9F1020F03D0B9F1030F46D111E0DC
:10577000A06800EA0705BD4206D1B8F1010F05D1C6
:10578000A068A843A06001E070203070584602F085
:10579000C7FA3AE0A06800EA070535B1B8F1010F91
:1057A00005D1A068A843A06001E070203070584681
:1057B00002F0B6FA29E0A06827EA0005BD4206D14A
:1057C000B8F1010F05D1A0682843A06001E0702066
:1057D0003070584602F0A4FA17E0A06827EA0005E6
:1057E00035B1B8F1010F05D1A0682843A06001E0F0
:1057F00070203070584602F093FA06E0584602F0E6
:105800008FFA00256F20307000BF00BF28468FE759
:105810002DE9F04106460D460027FA48007820B1F0
:10582000102028700020BDE8F08102F075FA0746CC
:10583000F548046884B100684068F34908600520B1
:105840002070A66000206060F0A0E060384602F0A2
:1058500067FA0020287004E0384602F061FA7220EE
:1058600028702046DFE730B501464A6808682AB943
:10587000CC68606028B10025456002E0106000B18E
:1058800042608B6800259D6230BDF0B506460F462C
:10589000B46800202C3460602760207A20F020005B
:1058A000207200206072207A2C3C88B93834A078AD
:1058B000D74909780843D64908702078D549085C4B
:1058C0006178084314F83819D24A5054012500E091
:1058D00000253046FFF7C7FF2846F0BD2DE9F04709
:1058E0000446894615464FF0000AC648007820B1A4
:1058F0000F2028702046BDE8F0872078052803D0C7
:10590000012028702046F6E702F006FA8246606819
:1059100008B1012700E00027B9F1000F03D0B9F169
:10592000010F3CD119E08FB9B8A0E06000202070D1
:10593000B548006860600020A060B348046050462D
:1059400002F0EEF900202870002605E0504602F033
:10595000E7F949202870264628E0D4F8048005E0BD
:1059600000214046FFF791FFD8F80080B8F1000F02
:10597000F6D1A6A0E06000202070A3480068606017
:105980000020A060A0480460504602F0C9F9012F31
:1059900001D1FFF7F2F800202870002606E05046FB
:1059A00002F0BEF907202870264600BF00BF30462F
:1059B000A1E72DE9F04105460E461446002791481F
:1059C000007820B1112020700020BDE8F08102F0A5
:1059D000A3F907462878052806D0384602F0A0F932
:1059E000012020700020F0E7E86830603068FFF7A1
:1059F00035F88046384602F093F900202070404682
:105A0000E3E72DE9F04105460E46144600277D48A0
:105A1000007818B112202070BDE8F08102F07CF906
:105A200007462878052805D0384602F079F9012084
:105A30002070F1E7EE60384602F072F90020207025
:105A400000BFE9E7F0B51446059E734F3F6897F82D
:105A5000347047F02007DFF8C0C1DCF800C08CF8D4
:105A600034700027DFF8B0C1DCF800C08CF8357066
:105A7000694F3F683E63684F3F68B9620C610B75C0
:105A8000654F3F688F6047680F6000274F60C860B0
:105A9000456805B1696041605F4F3F6897F83820FD
:105AA0005C4FBF5CDFF870C1DCF800C09CF839C007
:105AB00027EA0C07DFF85CC10CF802706746BF5C90
:105AC0005FB9554F3F6897F83AC0514F3F7827EA82
:105AD0000C07DFF83CC18CF80070F0BD2DE9F04FE9
